{
  "contractName": "Spacebear",
  "abi": [
    {
      "inputs": [],
      "stateMutability": "nonpayable",
      "type": "constructor"
    },
    {
      "anonymous": false,
      "inputs": [
        {
          "indexed": true,
          "internalType": "address",
          "name": "owner",
          "type": "address"
        },
        {
          "indexed": true,
          "internalType": "address",
          "name": "approved",
          "type": "address"
        },
        {
          "indexed": true,
          "internalType": "uint256",
          "name": "tokenId",
          "type": "uint256"
        }
      ],
      "name": "Approval",
      "type": "event"
    },
    {
      "anonymous": false,
      "inputs": [
        {
          "indexed": true,
          "internalType": "address",
          "name": "owner",
          "type": "address"
        },
        {
          "indexed": true,
          "internalType": "address",
          "name": "operator",
          "type": "address"
        },
        {
          "indexed": false,
          "internalType": "bool",
          "name": "approved",
          "type": "bool"
        }
      ],
      "name": "ApprovalForAll",
      "type": "event"
    },
    {
      "anonymous": false,
      "inputs": [
        {
          "indexed": true,
          "internalType": "address",
          "name": "previousOwner",
          "type": "address"
        },
        {
          "indexed": true,
          "internalType": "address",
          "name": "newOwner",
          "type": "address"
        }
      ],
      "name": "OwnershipTransferred",
      "type": "event"
    },
    {
      "anonymous": false,
      "inputs": [
        {
          "indexed": true,
          "internalType": "address",
          "name": "from",
          "type": "address"
        },
        {
          "indexed": true,
          "internalType": "address",
          "name": "to",
          "type": "address"
        },
        {
          "indexed": true,
          "internalType": "uint256",
          "name": "tokenId",
          "type": "uint256"
        }
      ],
      "name": "Transfer",
      "type": "event"
    },
    {
      "inputs": [],
      "name": "Counter",
      "outputs": [
        {
          "internalType": "uint256",
          "name": "",
          "type": "uint256"
        }
      ],
      "stateMutability": "view",
      "type": "function",
      "constant": true
    },
    {
      "inputs": [
        {
          "internalType": "address",
          "name": "to",
          "type": "address"
        },
        {
          "internalType": "uint256",
          "name": "tokenId",
          "type": "uint256"
        }
      ],
      "name": "approve",
      "outputs": [],
      "stateMutability": "nonpayable",
      "type": "function"
    },
    {
      "inputs": [
        {
          "internalType": "address",
          "name": "owner",
          "type": "address"
        }
      ],
      "name": "balanceOf",
      "outputs": [
        {
          "internalType": "uint256",
          "name": "",
          "type": "uint256"
        }
      ],
      "stateMutability": "view",
      "type": "function",
      "constant": true
    },
    {
      "inputs": [
        {
          "internalType": "uint256",
          "name": "tokenId",
          "type": "uint256"
        }
      ],
      "name": "getApproved",
      "outputs": [
        {
          "internalType": "address",
          "name": "",
          "type": "address"
        }
      ],
      "stateMutability": "view",
      "type": "function",
      "constant": true
    },
    {
      "inputs": [
        {
          "internalType": "address",
          "name": "owner",
          "type": "address"
        },
        {
          "internalType": "address",
          "name": "operator",
          "type": "address"
        }
      ],
      "name": "isApprovedForAll",
      "outputs": [
        {
          "internalType": "bool",
          "name": "",
          "type": "bool"
        }
      ],
      "stateMutability": "view",
      "type": "function",
      "constant": true
    },
    {
      "inputs": [],
      "name": "name",
      "outputs": [
        {
          "internalType": "string",
          "name": "",
          "type": "string"
        }
      ],
      "stateMutability": "view",
      "type": "function",
      "constant": true
    },
    {
      "inputs": [],
      "name": "owner",
      "outputs": [
        {
          "internalType": "address",
          "name": "",
          "type": "address"
        }
      ],
      "stateMutability": "view",
      "type": "function",
      "constant": true
    },
    {
      "inputs": [
        {
          "internalType": "uint256",
          "name": "tokenId",
          "type": "uint256"
        }
      ],
      "name": "ownerOf",
      "outputs": [
        {
          "internalType": "address",
          "name": "",
          "type": "address"
        }
      ],
      "stateMutability": "view",
      "type": "function",
      "constant": true
    },
    {
      "inputs": [],
      "name": "renounceOwnership",
      "outputs": [],
      "stateMutability": "nonpayable",
      "type": "function"
    },
    {
      "inputs": [
        {
          "internalType": "address",
          "name": "from",
          "type": "address"
        },
        {
          "internalType": "address",
          "name": "to",
          "type": "address"
        },
        {
          "internalType": "uint256",
          "name": "tokenId",
          "type": "uint256"
        }
      ],
      "name": "safeTransferFrom",
      "outputs": [],
      "stateMutability": "nonpayable",
      "type": "function"
    },
    {
      "inputs": [
        {
          "internalType": "address",
          "name": "from",
          "type": "address"
        },
        {
          "internalType": "address",
          "name": "to",
          "type": "address"
        },
        {
          "internalType": "uint256",
          "name": "tokenId",
          "type": "uint256"
        },
        {
          "internalType": "bytes",
          "name": "data",
          "type": "bytes"
        }
      ],
      "name": "safeTransferFrom",
      "outputs": [],
      "stateMutability": "nonpayable",
      "type": "function"
    },
    {
      "inputs": [
        {
          "internalType": "address",
          "name": "operator",
          "type": "address"
        },
        {
          "internalType": "bool",
          "name": "approved",
          "type": "bool"
        }
      ],
      "name": "setApprovalForAll",
      "outputs": [],
      "stateMutability": "nonpayable",
      "type": "function"
    },
    {
      "inputs": [
        {
          "internalType": "bytes4",
          "name": "interfaceId",
          "type": "bytes4"
        }
      ],
      "name": "supportsInterface",
      "outputs": [
        {
          "internalType": "bool",
          "name": "",
          "type": "bool"
        }
      ],
      "stateMutability": "view",
      "type": "function",
      "constant": true
    },
    {
      "inputs": [],
      "name": "symbol",
      "outputs": [
        {
          "internalType": "string",
          "name": "",
          "type": "string"
        }
      ],
      "stateMutability": "view",
      "type": "function",
      "constant": true
    },
    {
      "inputs": [
        {
          "internalType": "address",
          "name": "from",
          "type": "address"
        },
        {
          "internalType": "address",
          "name": "to",
          "type": "address"
        },
        {
          "internalType": "uint256",
          "name": "tokenId",
          "type": "uint256"
        }
      ],
      "name": "transferFrom",
      "outputs": [],
      "stateMutability": "nonpayable",
      "type": "function"
    },
    {
      "inputs": [
        {
          "internalType": "address",
          "name": "newOwner",
          "type": "address"
        }
      ],
      "name": "transferOwnership",
      "outputs": [],
      "stateMutability": "nonpayable",
      "type": "function"
    },
    {
      "inputs": [],
      "name": "buyToken",
      "outputs": [],
      "stateMutability": "payable",
      "type": "function",
      "payable": true
    },
    {
      "inputs": [
        {
          "internalType": "address",
          "name": "to",
          "type": "address"
        },
        {
          "internalType": "string",
          "name": "uri",
          "type": "string"
        }
      ],
      "name": "safeMint",
      "outputs": [],
      "stateMutability": "nonpayable",
      "type": "function"
    },
    {
      "inputs": [
        {
          "internalType": "uint256",
          "name": "tokenId",
          "type": "uint256"
        }
      ],
      "name": "tokenURI",
      "outputs": [
        {
          "internalType": "string",
          "name": "",
          "type": "string"
        }
      ],
      "stateMutability": "pure",
      "type": "function",
      "constant": true
    }
  ],
  "bytecode": "0x608060405234801562000010575f80fd5b506040518060400160405280600981526020017f53706163656265617200000000000000000000000000000000000000000000008152506040518060400160405280600381526020017f5342520000000000000000000000000000000000000000000000000000000000815250815f90816200008d9190620003f6565b5080600190816200009f9190620003f6565b505050620000c2620000b6620000c860201b60201c565b620000cf60201b60201c565b620004da565b5f33905090565b5f60065f9054906101000a900473ffffffffffffffffffffffffffffffffffffffff1690508160065f6101000a81548173ffffffffffffffffffffffffffffffffffffffff021916908373ffffffffffffffffffffffffffffffffffffffff1602179055508173ffffffffffffffffffffffffffffffffffffffff168173ffffffffffffffffffffffffffffffffffffffff167f8be0079c531659141344cd1fd0a4f28419497f9722a3daafe3b4186f6b6457e060405160405180910390a35050565b5f81519050919050565b7f4e487b71000000000000000000000000000000000000000000000000000000005f52604160045260245ffd5b7f4e487b71000000000000000000000000000000000000000000000000000000005f52602260045260245ffd5b5f60028204905060018216806200020e57607f821691505b602082108103620002245762000223620001c9565b5b50919050565b5f819050815f5260205f209050919050565b5f6020601f8301049050919050565b5f82821b905092915050565b5f60088302620002887fffffffffffffffffffffffffffffffffffffffffffffffffffffffffffffffff826200024b565b6200029486836200024b565b95508019841693508086168417925050509392505050565b5f819050919050565b5f819050919050565b5f620002de620002d8620002d284620002ac565b620002b5565b620002ac565b9050919050565b5f819050919050565b620002f983620002be565b620003116200030882620002e5565b84845462000257565b825550505050565b5f90565b6200032762000319565b62000334818484620002ee565b505050565b5b818110156200035b576200034f5f826200031d565b6001810190506200033a565b5050565b601f821115620003aa5762000374816200022a565b6200037f846200023c565b810160208510156200038f578190505b620003a76200039e856200023c565b83018262000339565b50505b505050565b5f82821c905092915050565b5f620003cc5f1984600802620003af565b1980831691505092915050565b5f620003e68383620003bb565b9150826002028217905092915050565b620004018262000192565b67ffffffffffffffff8111156200041d576200041c6200019c565b5b620004298254620001f6565b620004368282856200035f565b5f60209050601f8311600181146200046c575f841562000457578287015190505b620004638582620003d9565b865550620004d2565b601f1984166200047c866200022a565b5f5b82811015620004a5578489015182556001820191506020850194506020810190506200047e565b86831015620004c55784890151620004c1601f891682620003bb565b8355505b6001600288020188555050505b505050505050565b612aff80620004e85f395ff3fe608060405260043610610113575f3560e01c8063715018a61161009f578063b88d4fde11610063578063b88d4fde1461036f578063c87b56dd14610397578063d204c45e146103d3578063e985e9c5146103fb578063f2fde38b1461043757610113565b8063715018a6146102d35780638da5cb5b146102e957806395d89b4114610313578063a22cb4651461033d578063a48217191461036557610113565b806323b872dd116100e657806323b872dd146101e157806342842e0e146102095780634eeca076146102315780636352211e1461025b57806370a082311461029757610113565b806301ffc9a71461011757806306fdde0314610153578063081812fc1461017d578063095ea7b3146101b9575b5f80fd5b348015610122575f80fd5b5061013d60048036038101906101389190611a58565b61045f565b60405161014a9190611a9d565b60405180910390f35b34801561015e575f80fd5b50610167610540565b6040516101749190611b40565b60405180910390f35b348015610188575f80fd5b506101a3600480360381019061019e9190611b93565b6105cf565b6040516101b09190611bfd565b60405180910390f35b3480156101c4575f80fd5b506101df60048036038101906101da9190611c40565b610611565b005b3480156101ec575f80fd5b5061020760048036038101906102029190611c7e565b610727565b005b348015610214575f80fd5b5061022f600480360381019061022a9190611c7e565b610787565b005b34801561023c575f80fd5b506102456107a6565b6040516102529190611cdd565b60405180910390f35b348015610266575f80fd5b50610281600480360381019061027c9190611b93565b6107ac565b60405161028e9190611bfd565b60405180910390f35b3480156102a2575f80fd5b506102bd60048036038101906102b89190611cf6565b610830565b6040516102ca9190611cdd565b60405180910390f35b3480156102de575f80fd5b506102e76108e4565b005b3480156102f4575f80fd5b506102fd6108f7565b60405161030a9190611bfd565b60405180910390f35b34801561031e575f80fd5b5061032761091f565b6040516103349190611b40565b60405180910390f35b348015610348575f80fd5b50610363600480360381019061035e9190611d4b565b6109af565b005b61036d6109c5565b005b34801561037a575f80fd5b5061039560048036038101906103909190611eb5565b610a84565b005b3480156103a2575f80fd5b506103bd60048036038101906103b89190611b93565b610ae6565b6040516103ca9190611b40565b60405180910390f35b3480156103de575f80fd5b506103f960048036038101906103f49190611fd3565b610b24565b005b348015610406575f80fd5b50610421600480360381019061041c919061202d565b610b58565b60405161042e9190611a9d565b60405180910390f35b348015610442575f80fd5b5061045d60048036038101906104589190611cf6565b610be6565b005b5f7f80ac58cd000000000000000000000000000000000000000000000000000000007bffffffffffffffffffffffffffffffffffffffffffffffffffffffff1916827bffffffffffffffffffffffffffffffffffffffffffffffffffffffff1916148061052957507f5b5e139f000000000000000000000000000000000000000000000000000000007bffffffffffffffffffffffffffffffffffffffffffffffffffffffff1916827bffffffffffffffffffffffffffffffffffffffffffffffffffffffff1916145b80610539575061053882610c68565b5b9050919050565b60605f805461054e90612098565b80601f016020809104026020016040519081016040528092919081815260200182805461057a90612098565b80156105c55780601f1061059c576101008083540402835291602001916105c5565b820191905f5260205f20905b8154815290600101906020018083116105a857829003601f168201915b5050505050905090565b5f6105d982610cd1565b60045f8381526020019081526020015f205f9054906101000a900473ffffffffffffffffffffffffffffffffffffffff169050919050565b5f61061b826107ac565b90508073ffffffffffffffffffffffffffffffffffffffff168373ffffffffffffffffffffffffffffffffffffffff160361068b576040517f08c379a000000000000000000000000000000000000000000000000000000000815260040161068290612138565b60405180910390fd5b8073ffffffffffffffffffffffffffffffffffffffff166106aa610d1c565b73ffffffffffffffffffffffffffffffffffffffff1614806106d957506106d8816106d3610d1c565b610b58565b5b610718576040517f08c379a000000000000000000000000000000000000000000000000000000000815260040161070f906121c6565b60405180910390fd5b6107228383610d23565b505050565b610738610732610d1c565b82610dd9565b610777576040517f08c379a000000000000000000000000000000000000000000000000000000000815260040161076e90612254565b60405180910390fd5b610782838383610e6d565b505050565b6107a183838360405180602001604052805f815250610a84565b505050565b60075481565b5f806107b783611159565b90505f73ffffffffffffffffffffffffffffffffffffffff168173ffffffffffffffffffffffffffffffffffffffff1603610827576040517f08c379a000000000000000000000000000000000000000000000000000000000815260040161081e906122bc565b60405180910390fd5b80915050919050565b5f8073ffffffffffffffffffffffffffffffffffffffff168273ffffffffffffffffffffffffffffffffffffffff160361089f576040517f08c379a00000000000000000000000000000000000000000000000000000000081526004016108969061234a565b60405180910390fd5b60035f8373ffffffffffffffffffffffffffffffffffffffff1673ffffffffffffffffffffffffffffffffffffffff1681526020019081526020015f20549050919050565b6108ec611192565b6108f55f611210565b565b5f60065f9054906101000a900473ffffffffffffffffffffffffffffffffffffffff16905090565b60606001805461092e90612098565b80601f016020809104026020016040519081016040528092919081815260200182805461095a90612098565b80156109a55780601f1061097c576101008083540402835291602001916109a5565b820191905f5260205f20905b81548152906001019060200180831161098857829003601f168201915b5050505050905090565b6109c16109ba610d1c565b83836112d3565b5050565b5f6007549050610a0b6040518060400160405280600981526020017f676f7420686572653a0000000000000000000000000000000000000000000000815250823461143a565b67016345785d8a000081610a1f9190612395565b3414610a60576040517f08c379a0000000000000000000000000000000000000000000000000000000008152600401610a5790612420565b60405180910390fd5b60075f815480929190610a729061243e565b9190505550610a8133826114d9565b50565b610a95610a8f610d1c565b83610dd9565b610ad4576040517f08c379a0000000000000000000000000000000000000000000000000000000008152600401610acb90612254565b60405180910390fd5b610ae0848484846114f6565b50505050565b6060610af0611552565b600183610afd9190612485565b604051602001610b0e92919061255c565b6040516020818303038152906040529050919050565b610b2c611192565b5f600754905060075f815480929190610b449061243e565b9190505550610b5383826114d9565b505050565b5f60055f8473ffffffffffffffffffffffffffffffffffffffff1673ffffffffffffffffffffffffffffffffffffffff1681526020019081526020015f205f8373ffffffffffffffffffffffffffffffffffffffff1673ffffffffffffffffffffffffffffffffffffffff1681526020019081526020015f205f9054906101000a900460ff16905092915050565b610bee611192565b5f73ffffffffffffffffffffffffffffffffffffffff168173ffffffffffffffffffffffffffffffffffffffff1603610c5c576040517f08c379a0000000000000000000000000000000000000000000000000000000008152600401610c53906125fe565b60405180910390fd5b610c6581611210565b50565b5f7f01ffc9a7000000000000000000000000000000000000000000000000000000007bffffffffffffffffffffffffffffffffffffffffffffffffffffffff1916827bffffffffffffffffffffffffffffffffffffffffffffffffffffffff1916149050919050565b610cda81611572565b610d19576040517f08c379a0000000000000000000000000000000000000000000000000000000008152600401610d10906122bc565b60405180910390fd5b50565b5f33905090565b8160045f8381526020019081526020015f205f6101000a81548173ffffffffffffffffffffffffffffffffffffffff021916908373ffffffffffffffffffffffffffffffffffffffff160217905550808273ffffffffffffffffffffffffffffffffffffffff16610d93836107ac565b73ffffffffffffffffffffffffffffffffffffffff167f8c5be1e5ebec7d5bd14f71427d1e84f3dd0314c0f7b2291e5b200ac8c7c3b92560405160405180910390a45050565b5f80610de4836107ac565b90508073ffffffffffffffffffffffffffffffffffffffff168473ffffffffffffffffffffffffffffffffffffffff161480610e265750610e258185610b58565b5b80610e6457508373ffffffffffffffffffffffffffffffffffffffff16610e4c846105cf565b73ffffffffffffffffffffffffffffffffffffffff16145b91505092915050565b8273ffffffffffffffffffffffffffffffffffffffff16610e8d826107ac565b73ffffffffffffffffffffffffffffffffffffffff1614610ee3576040517f08c379a0000000000000000000000000000000000000000000000000000000008152600401610eda9061268c565b60405180910390fd5b5f73ffffffffffffffffffffffffffffffffffffffff168273ffffffffffffffffffffffffffffffffffffffff1603610f51576040517f08c379a0000000000000000000000000000000000000000000000000000000008152600401610f489061271a565b60405180910390fd5b610f5e83838360016115b2565b8273ffffffffffffffffffffffffffffffffffffffff16610f7e826107ac565b73ffffffffffffffffffffffffffffffffffffffff1614610fd4576040517f08c379a0000000000000000000000000000000000000000000000000000000008152600401610fcb9061268c565b60405180910390fd5b60045f8281526020019081526020015f205f6101000a81549073ffffffffffffffffffffffffffffffffffffffff0219169055600160035f8573ffffffffffffffffffffffffffffffffffffffff1673ffffffffffffffffffffffffffffffffffffffff1681526020019081526020015f205f8282540392505081905550600160035f8473ffffffffffffffffffffffffffffffffffffffff1673ffffffffffffffffffffffffffffffffffffffff1681526020019081526020015f205f82825401925050819055508160025f8381526020019081526020015f205f6101000a81548173ffffffffffffffffffffffffffffffffffffffff021916908373ffffffffffffffffffffffffffffffffffffffff160217905550808273ffffffffffffffffffffffffffffffffffffffff168473ffffffffffffffffffffffffffffffffffffffff167fddf252ad1be2c89b69c2b068fc378daa952ba7f163c4a11628f55a4df523b3ef60405160405180910390a461115483838360016115b8565b505050565b5f60025f8381526020019081526020015f205f9054906101000a900473ffffffffffffffffffffffffffffffffffffffff169050919050565b61119a610d1c565b73ffffffffffffffffffffffffffffffffffffffff166111b86108f7565b73ffffffffffffffffffffffffffffffffffffffff161461120e576040517f08c379a000000000000000000000000000000000000000000000000000000000815260040161120590612782565b60405180910390fd5b565b5f60065f9054906101000a900473ffffffffffffffffffffffffffffffffffffffff1690508160065f6101000a81548173ffffffffffffffffffffffffffffffffffffffff021916908373ffffffffffffffffffffffffffffffffffffffff1602179055508173ffffffffffffffffffffffffffffffffffffffff168173ffffffffffffffffffffffffffffffffffffffff167f8be0079c531659141344cd1fd0a4f28419497f9722a3daafe3b4186f6b6457e060405160405180910390a35050565b8173ffffffffffffffffffffffffffffffffffffffff168373ffffffffffffffffffffffffffffffffffffffff1603611341576040517f08c379a0000000000000000000000000000000000000000000000000000000008152600401611338906127ea565b60405180910390fd5b8060055f8573ffffffffffffffffffffffffffffffffffffffff1673ffffffffffffffffffffffffffffffffffffffff1681526020019081526020015f205f8473ffffffffffffffffffffffffffffffffffffffff1673ffffffffffffffffffffffffffffffffffffffff1681526020019081526020015f205f6101000a81548160ff0219169083151502179055508173ffffffffffffffffffffffffffffffffffffffff168373ffffffffffffffffffffffffffffffffffffffff167f17307eab39ab6107e8899845ad3d59bd9653f200f220920489ca2b5937696c318360405161142d9190611a9d565b60405180910390a3505050565b6114d483838360405160240161145293929190612808565b6040516020818303038152906040527fca47c4eb000000000000000000000000000000000000000000000000000000007bffffffffffffffffffffffffffffffffffffffffffffffffffffffff19166020820180517bffffffffffffffffffffffffffffffffffffffffffffffffffffffff83818316178352505050506115be565b505050565b6114f2828260405180602001604052805f8152506115e1565b5050565b611501848484610e6d565b61150d8484848461163b565b61154c576040517f08c379a0000000000000000000000000000000000000000000000000000000008152600401611543906128b4565b60405180910390fd5b50505050565b60606040518060800160405280604c8152602001612a7e604c9139905090565b5f8073ffffffffffffffffffffffffffffffffffffffff1661159383611159565b73ffffffffffffffffffffffffffffffffffffffff1614159050919050565b50505050565b50505050565b5f6a636f6e736f6c652e6c6f6790508151602083015f808383865afa5050505050565b6115eb83836117bd565b6115f75f84848461163b565b611636576040517f08c379a000000000000000000000000000000000000000000000000000000000815260040161162d906128b4565b60405180910390fd5b505050565b5f61165b8473ffffffffffffffffffffffffffffffffffffffff166119d0565b156117b0578373ffffffffffffffffffffffffffffffffffffffff1663150b7a02611684610d1c565b8786866040518563ffffffff1660e01b81526004016116a69493929190612924565b6020604051808303815f875af19250505080156116e157506040513d601f19601f820116820180604052508101906116de9190612982565b60015b611760573d805f811461170f576040519150601f19603f3d011682016040523d82523d5f602084013e611714565b606091505b505f815103611758576040517f08c379a000000000000000000000000000000000000000000000000000000000815260040161174f906128b4565b60405180910390fd5b805181602001fd5b63150b7a0260e01b7bffffffffffffffffffffffffffffffffffffffffffffffffffffffff1916817bffffffffffffffffffffffffffffffffffffffffffffffffffffffff1916149150506117b5565b600190505b949350505050565b5f73ffffffffffffffffffffffffffffffffffffffff168273ffffffffffffffffffffffffffffffffffffffff160361182b576040517f08c379a0000000000000000000000000000000000000000000000000000000008152600401611822906129f7565b60405180910390fd5b61183481611572565b15611874576040517f08c379a000000000000000000000000000000000000000000000000000000000815260040161186b90612a5f565b60405180910390fd5b6118815f838360016115b2565b61188a81611572565b156118ca576040517f08c379a00000000000000000000000000000000000000000000000000000000081526004016118c190612a5f565b60405180910390fd5b600160035f8473ffffffffffffffffffffffffffffffffffffffff1673ffffffffffffffffffffffffffffffffffffffff1681526020019081526020015f205f82825401925050819055508160025f8381526020019081526020015f205f6101000a81548173ffffffffffffffffffffffffffffffffffffffff021916908373ffffffffffffffffffffffffffffffffffffffff160217905550808273ffffffffffffffffffffffffffffffffffffffff165f73ffffffffffffffffffffffffffffffffffffffff167fddf252ad1be2c89b69c2b068fc378daa952ba7f163c4a11628f55a4df523b3ef60405160405180910390a46119cc5f838360016115b8565b5050565b5f808273ffffffffffffffffffffffffffffffffffffffff163b119050919050565b5f604051905090565b5f80fd5b5f80fd5b5f7fffffffff0000000000000000000000000000000000000000000000000000000082169050919050565b611a3781611a03565b8114611a41575f80fd5b50565b5f81359050611a5281611a2e565b92915050565b5f60208284031215611a6d57611a6c6119fb565b5b5f611a7a84828501611a44565b91505092915050565b5f8115159050919050565b611a9781611a83565b82525050565b5f602082019050611ab05f830184611a8e565b92915050565b5f81519050919050565b5f82825260208201905092915050565b5f5b83811015611aed578082015181840152602081019050611ad2565b5f8484015250505050565b5f601f19601f8301169050919050565b5f611b1282611ab6565b611b1c8185611ac0565b9350611b2c818560208601611ad0565b611b3581611af8565b840191505092915050565b5f6020820190508181035f830152611b588184611b08565b905092915050565b5f819050919050565b611b7281611b60565b8114611b7c575f80fd5b50565b5f81359050611b8d81611b69565b92915050565b5f60208284031215611ba857611ba76119fb565b5b5f611bb584828501611b7f565b91505092915050565b5f73ffffffffffffffffffffffffffffffffffffffff82169050919050565b5f611be782611bbe565b9050919050565b611bf781611bdd565b82525050565b5f602082019050611c105f830184611bee565b92915050565b611c1f81611bdd565b8114611c29575f80fd5b50565b5f81359050611c3a81611c16565b92915050565b5f8060408385031215611c5657611c556119fb565b5b5f611c6385828601611c2c565b9250506020611c7485828601611b7f565b9150509250929050565b5f805f60608486031215611c9557611c946119fb565b5b5f611ca286828701611c2c565b9350506020611cb386828701611c2c565b9250506040611cc486828701611b7f565b9150509250925092565b611cd781611b60565b82525050565b5f602082019050611cf05f830184611cce565b92915050565b5f60208284031215611d0b57611d0a6119fb565b5b5f611d1884828501611c2c565b91505092915050565b611d2a81611a83565b8114611d34575f80fd5b50565b5f81359050611d4581611d21565b92915050565b5f8060408385031215611d6157611d606119fb565b5b5f611d6e85828601611c2c565b9250506020611d7f85828601611d37565b9150509250929050565b5f80fd5b5f80fd5b7f4e487b71000000000000000000000000000000000000000000000000000000005f52604160045260245ffd5b611dc782611af8565b810181811067ffffffffffffffff82111715611de657611de5611d91565b5b80604052505050565b5f611df86119f2565b9050611e048282611dbe565b919050565b5f67ffffffffffffffff821115611e2357611e22611d91565b5b611e2c82611af8565b9050602081019050919050565b828183375f83830152505050565b5f611e59611e5484611e09565b611def565b905082815260208101848484011115611e7557611e74611d8d565b5b611e80848285611e39565b509392505050565b5f82601f830112611e9c57611e9b611d89565b5b8135611eac848260208601611e47565b91505092915050565b5f805f8060808587031215611ecd57611ecc6119fb565b5b5f611eda87828801611c2c565b9450506020611eeb87828801611c2c565b9350506040611efc87828801611b7f565b925050606085013567ffffffffffffffff811115611f1d57611f1c6119ff565b5b611f2987828801611e88565b91505092959194509250565b5f67ffffffffffffffff821115611f4f57611f4e611d91565b5b611f5882611af8565b9050602081019050919050565b5f611f77611f7284611f35565b611def565b905082815260208101848484011115611f9357611f92611d8d565b5b611f9e848285611e39565b509392505050565b5f82601f830112611fba57611fb9611d89565b5b8135611fca848260208601611f65565b91505092915050565b5f8060408385031215611fe957611fe86119fb565b5b5f611ff685828601611c2c565b925050602083013567ffffffffffffffff811115612017576120166119ff565b5b61202385828601611fa6565b9150509250929050565b5f8060408385031215612043576120426119fb565b5b5f61205085828601611c2c565b925050602061206185828601611c2c565b9150509250929050565b7f4e487b71000000000000000000000000000000000000000000000000000000005f52602260045260245ffd5b5f60028204905060018216806120af57607f821691505b6020821081036120c2576120c161206b565b5b50919050565b7f4552433732313a20617070726f76616c20746f2063757272656e74206f776e655f8201527f7200000000000000000000000000000000000000000000000000000000000000602082015250565b5f612122602183611ac0565b915061212d826120c8565b604082019050919050565b5f6020820190508181035f83015261214f81612116565b9050919050565b7f4552433732313a20617070726f76652063616c6c6572206973206e6f7420746f5f8201527f6b656e206f776e6572206f7220617070726f76656420666f7220616c6c000000602082015250565b5f6121b0603d83611ac0565b91506121bb82612156565b604082019050919050565b5f6020820190508181035f8301526121dd816121a4565b9050919050565b7f4552433732313a2063616c6c6572206973206e6f7420746f6b656e206f776e655f8201527f72206f7220617070726f76656400000000000000000000000000000000000000602082015250565b5f61223e602d83611ac0565b9150612249826121e4565b604082019050919050565b5f6020820190508181035f83015261226b81612232565b9050919050565b7f4552433732313a20696e76616c696420746f6b656e20494400000000000000005f82015250565b5f6122a6601883611ac0565b91506122b182612272565b602082019050919050565b5f6020820190508181035f8301526122d38161229a565b9050919050565b7f4552433732313a2061646472657373207a65726f206973206e6f7420612076615f8201527f6c6964206f776e65720000000000000000000000000000000000000000000000602082015250565b5f612334602983611ac0565b915061233f826122da565b604082019050919050565b5f6020820190508181035f83015261236181612328565b9050919050565b7f4e487b71000000000000000000000000000000000000000000000000000000005f52601160045260245ffd5b5f61239f82611b60565b91506123aa83611b60565b92508282026123b881611b60565b915082820484148315176123cf576123ce612368565b5b5092915050565b7f57726f6e6720616d6f756e74206f662066756e64732073656e740000000000005f82015250565b5f61240a601a83611ac0565b9150612415826123d6565b602082019050919050565b5f6020820190508181035f830152612437816123fe565b9050919050565b5f61244882611b60565b91507fffffffffffffffffffffffffffffffffffffffffffffffffffffffffffffffff820361247a57612479612368565b5b600182019050919050565b5f61248f82611b60565b915061249a83611b60565b92508282019050808211156124b2576124b1612368565b5b92915050565b5f81905092915050565b5f6124cc82611ab6565b6124d681856124b8565b93506124e6818560208601611ad0565b80840191505092915050565b5f819050919050565b61250c61250782611b60565b6124f2565b82525050565b7f2e6a736f6e0000000000000000000000000000000000000000000000000000005f82015250565b5f6125466005836124b8565b915061255182612512565b600582019050919050565b5f61256782856124c2565b915061257382846124fb565b6020820191506125828261253a565b91508190509392505050565b7f4f776e61626c653a206e6577206f776e657220697320746865207a65726f20615f8201527f6464726573730000000000000000000000000000000000000000000000000000602082015250565b5f6125e8602683611ac0565b91506125f38261258e565b604082019050919050565b5f6020820190508181035f830152612615816125dc565b9050919050565b7f4552433732313a207472616e736665722066726f6d20696e636f7272656374205f8201527f6f776e6572000000000000000000000000000000000000000000000000000000602082015250565b5f612676602583611ac0565b91506126818261261c565b604082019050919050565b5f6020820190508181035f8301526126a38161266a565b9050919050565b7f4552433732313a207472616e7366657220746f20746865207a65726f206164645f8201527f7265737300000000000000000000000000000000000000000000000000000000602082015250565b5f612704602483611ac0565b915061270f826126aa565b604082019050919050565b5f6020820190508181035f830152612731816126f8565b9050919050565b7f4f776e61626c653a2063616c6c6572206973206e6f7420746865206f776e65725f82015250565b5f61276c602083611ac0565b915061277782612738565b602082019050919050565b5f6020820190508181035f83015261279981612760565b9050919050565b7f4552433732313a20617070726f766520746f2063616c6c6572000000000000005f82015250565b5f6127d4601983611ac0565b91506127df826127a0565b602082019050919050565b5f6020820190508181035f830152612801816127c8565b9050919050565b5f6060820190508181035f8301526128208186611b08565b905061282f6020830185611cce565b61283c6040830184611cce565b949350505050565b7f4552433732313a207472616e7366657220746f206e6f6e2045524337323152655f8201527f63656976657220696d706c656d656e7465720000000000000000000000000000602082015250565b5f61289e603283611ac0565b91506128a982612844565b604082019050919050565b5f6020820190508181035f8301526128cb81612892565b9050919050565b5f81519050919050565b5f82825260208201905092915050565b5f6128f6826128d2565b61290081856128dc565b9350612910818560208601611ad0565b61291981611af8565b840191505092915050565b5f6080820190506129375f830187611bee565b6129446020830186611bee565b6129516040830185611cce565b818103606083015261296381846128ec565b905095945050505050565b5f8151905061297c81611a2e565b92915050565b5f60208284031215612997576129966119fb565b5b5f6129a48482850161296e565b91505092915050565b7f4552433732313a206d696e7420746f20746865207a65726f20616464726573735f82015250565b5f6129e1602083611ac0565b91506129ec826129ad565b602082019050919050565b5f6020820190508181035f830152612a0e816129d5565b9050919050565b7f4552433732313a20746f6b656e20616c7265616479206d696e746564000000005f82015250565b5f612a49601c83611ac0565b9150612a5482612a15565b602082019050919050565b5f6020820190508181035f830152612a7681612a3d565b905091905056fe68747470733a2f2f697066732e696f2f697066732f516d5531434e75774a5a54786336465a714b4c735550566a50725231466732553739734e4459516f7a70426a37772f67656e657369732fa264697066735822122059759cf89a556b6e873f5ac496436ea40c838354da91453f06d239ac3a0d92b264736f6c63430008140033",
  "immutableReferences": {},
  "source": "\npragma solidity ^0.8.17;\n\nimport \"@openzeppelin/contracts/token/ERC721/ERC721.sol\";\nimport \"@openzeppelin/contracts/token/ERC721/extensions/ERC721URIStorage.sol\";\nimport \"@openzeppelin/contracts/access/Ownable.sol\";\n\nimport '@ganache/console.log/console.sol';\n\n//import \"@openzeppelin/contracts/security/Pausable.sol\";\n\ncontract Spacebear is ERC721, Ownable{\n    \n    uint public Counter;\n    \n    constructor() ERC721(\"Spacebear\",\"SBR\"){}\n\n    function _baseURI() internal pure override returns (string memory){\n        return \"https://ipfs.io/ipfs/QmU1CNuwJZTxc6FZqKLsUPVjPrR1Fg2U79sNDYQozpBj7w/genesis/\";\n    }\n\n    function buyToken() public payable {\n        uint256 tokenId = Counter;\n        console.log(\"got here:\", tokenId, msg.value);\n        require( msg.value == tokenId * 0.1 ether,\"Wrong amount of funds sent\" );\n        Counter ++;\n        _safeMint(msg.sender, tokenId);\n    }\n\n\n    function safeMint(address to, string memory uri) public onlyOwner {\n        uint256 tokenId = Counter;\n        Counter++;\n        _safeMint(to, tokenId);\n        \n    }\n\n    /* function _burn(uint256 tokenId) internal virtual  override(ERC721, ERC721URIStorage) {\n        super._burn(tokenId);\n    } */\n\n    function tokenURI(uint256 tokenId) public pure virtual override(ERC721) returns (string memory){\n        return string(abi.encodePacked(_baseURI(),(tokenId+1),\".json\"));\n    } \n\n\n}\n",
  "sourcePath": "/home/nasir/Documents/web_design/ethnetworkSlolidity/ntf-project/truffle/contracts/Spacebear.sol",
  "compiler": {
    "name": "solc",
    "version": "0.8.20+commit.a1b79de6.Emscripten.clang"
  },
  "schemaVersion": "3.4.14",
  "updatedAt": "2023-07-01T10:36:22.597Z",
  "networkType": "ethereum",
  "devdoc": {
    "events": {
      "Approval(address,address,uint256)": {
        "details": "Emitted when `owner` enables `approved` to manage the `tokenId` token."
      },
      "ApprovalForAll(address,address,bool)": {
        "details": "Emitted when `owner` enables or disables (`approved`) `operator` to manage all of its assets."
      },
      "Transfer(address,address,uint256)": {
        "details": "Emitted when `tokenId` token is transferred from `from` to `to`."
      }
    },
    "kind": "dev",
    "methods": {
      "approve(address,uint256)": {
        "details": "See {IERC721-approve}."
      },
      "balanceOf(address)": {
        "details": "See {IERC721-balanceOf}."
      },
      "getApproved(uint256)": {
        "details": "See {IERC721-getApproved}."
      },
      "isApprovedForAll(address,address)": {
        "details": "See {IERC721-isApprovedForAll}."
      },
      "name()": {
        "details": "See {IERC721Metadata-name}."
      },
      "owner()": {
        "details": "Returns the address of the current owner."
      },
      "ownerOf(uint256)": {
        "details": "See {IERC721-ownerOf}."
      },
      "renounceOwnership()": {
        "details": "Leaves the contract without owner. It will not be possible to call `onlyOwner` functions. Can only be called by the current owner. NOTE: Renouncing ownership will leave the contract without an owner, thereby disabling any functionality that is only available to the owner."
      },
      "safeTransferFrom(address,address,uint256)": {
        "details": "See {IERC721-safeTransferFrom}."
      },
      "safeTransferFrom(address,address,uint256,bytes)": {
        "details": "See {IERC721-safeTransferFrom}."
      },
      "setApprovalForAll(address,bool)": {
        "details": "See {IERC721-setApprovalForAll}."
      },
      "supportsInterface(bytes4)": {
        "details": "See {IERC165-supportsInterface}."
      },
      "symbol()": {
        "details": "See {IERC721Metadata-symbol}."
      },
      "tokenURI(uint256)": {
        "details": "See {IERC721Metadata-tokenURI}."
      },
      "transferFrom(address,address,uint256)": {
        "details": "See {IERC721-transferFrom}."
      },
      "transferOwnership(address)": {
        "details": "Transfers ownership of the contract to a new account (`newOwner`). Can only be called by the current owner."
      }
    },
    "version": 1
  },
  "userdoc": {
    "kind": "user",
    "methods": {},
    "version": 1
  }
}